{
  "contractName": "Token",
  "abi": [
    {
      "inputs": [
        {
          "internalType": "string",
          "name": "name",
          "type": "string"
        },
        {
          "internalType": "string",
          "name": "symbol",
          "type": "string"
        }
      ],
      "stateMutability": "nonpayable",
      "type": "constructor"
    },
    {
      "anonymous": false,
      "inputs": [
        {
          "indexed": true,
          "internalType": "address",
          "name": "owner",
          "type": "address"
        },
        {
          "indexed": true,
          "internalType": "address",
          "name": "approved",
          "type": "address"
        },
        {
          "indexed": true,
          "internalType": "uint256",
          "name": "tokenId",
          "type": "uint256"
        }
      ],
      "name": "Approval",
      "type": "event"
    },
    {
      "anonymous": false,
      "inputs": [
        {
          "indexed": true,
          "internalType": "address",
          "name": "owner",
          "type": "address"
        },
        {
          "indexed": true,
          "internalType": "address",
          "name": "operator",
          "type": "address"
        },
        {
          "indexed": false,
          "internalType": "bool",
          "name": "approved",
          "type": "bool"
        }
      ],
      "name": "ApprovalForAll",
      "type": "event"
    },
    {
      "anonymous": false,
      "inputs": [
        {
          "indexed": true,
          "internalType": "address",
          "name": "previousOwner",
          "type": "address"
        },
        {
          "indexed": true,
          "internalType": "address",
          "name": "newOwner",
          "type": "address"
        }
      ],
      "name": "OwnershipTransferred",
      "type": "event"
    },
    {
      "anonymous": false,
      "inputs": [
        {
          "indexed": true,
          "internalType": "address",
          "name": "from",
          "type": "address"
        },
        {
          "indexed": true,
          "internalType": "address",
          "name": "to",
          "type": "address"
        },
        {
          "indexed": true,
          "internalType": "uint256",
          "name": "tokenId",
          "type": "uint256"
        }
      ],
      "name": "Transfer",
      "type": "event"
    },
    {
      "inputs": [
        {
          "internalType": "address",
          "name": "to",
          "type": "address"
        },
        {
          "internalType": "uint256",
          "name": "tokenId",
          "type": "uint256"
        }
      ],
      "name": "approve",
      "outputs": [],
      "stateMutability": "nonpayable",
      "type": "function"
    },
    {
      "inputs": [
        {
          "internalType": "address",
          "name": "owner",
          "type": "address"
        }
      ],
      "name": "balanceOf",
      "outputs": [
        {
          "internalType": "uint256",
          "name": "",
          "type": "uint256"
        }
      ],
      "stateMutability": "view",
      "type": "function"
    },
    {
      "inputs": [
        {
          "internalType": "uint256",
          "name": "tokenId",
          "type": "uint256"
        }
      ],
      "name": "getApproved",
      "outputs": [
        {
          "internalType": "address",
          "name": "",
          "type": "address"
        }
      ],
      "stateMutability": "view",
      "type": "function"
    },
    {
      "inputs": [
        {
          "internalType": "address",
          "name": "owner",
          "type": "address"
        },
        {
          "internalType": "address",
          "name": "operator",
          "type": "address"
        }
      ],
      "name": "isApprovedForAll",
      "outputs": [
        {
          "internalType": "bool",
          "name": "",
          "type": "bool"
        }
      ],
      "stateMutability": "view",
      "type": "function"
    },
    {
      "inputs": [],
      "name": "name",
      "outputs": [
        {
          "internalType": "string",
          "name": "",
          "type": "string"
        }
      ],
      "stateMutability": "view",
      "type": "function"
    },
    {
      "inputs": [],
      "name": "owner",
      "outputs": [
        {
          "internalType": "address",
          "name": "",
          "type": "address"
        }
      ],
      "stateMutability": "view",
      "type": "function"
    },
    {
      "inputs": [
        {
          "internalType": "uint256",
          "name": "tokenId",
          "type": "uint256"
        }
      ],
      "name": "ownerOf",
      "outputs": [
        {
          "internalType": "address",
          "name": "",
          "type": "address"
        }
      ],
      "stateMutability": "view",
      "type": "function"
    },
    {
      "inputs": [],
      "name": "renounceOwnership",
      "outputs": [],
      "stateMutability": "nonpayable",
      "type": "function"
    },
    {
      "inputs": [
        {
          "internalType": "address",
          "name": "from",
          "type": "address"
        },
        {
          "internalType": "address",
          "name": "to",
          "type": "address"
        },
        {
          "internalType": "uint256",
          "name": "tokenId",
          "type": "uint256"
        }
      ],
      "name": "safeTransferFrom",
      "outputs": [],
      "stateMutability": "nonpayable",
      "type": "function"
    },
    {
      "inputs": [
        {
          "internalType": "address",
          "name": "from",
          "type": "address"
        },
        {
          "internalType": "address",
          "name": "to",
          "type": "address"
        },
        {
          "internalType": "uint256",
          "name": "tokenId",
          "type": "uint256"
        },
        {
          "internalType": "bytes",
          "name": "_data",
          "type": "bytes"
        }
      ],
      "name": "safeTransferFrom",
      "outputs": [],
      "stateMutability": "nonpayable",
      "type": "function"
    },
    {
      "inputs": [
        {
          "internalType": "address",
          "name": "operator",
          "type": "address"
        },
        {
          "internalType": "bool",
          "name": "approved",
          "type": "bool"
        }
      ],
      "name": "setApprovalForAll",
      "outputs": [],
      "stateMutability": "nonpayable",
      "type": "function"
    },
    {
      "inputs": [
        {
          "internalType": "bytes4",
          "name": "interfaceId",
          "type": "bytes4"
        }
      ],
      "name": "supportsInterface",
      "outputs": [
        {
          "internalType": "bool",
          "name": "",
          "type": "bool"
        }
      ],
      "stateMutability": "view",
      "type": "function"
    },
    {
      "inputs": [],
      "name": "symbol",
      "outputs": [
        {
          "internalType": "string",
          "name": "",
          "type": "string"
        }
      ],
      "stateMutability": "view",
      "type": "function"
    },
    {
      "inputs": [
        {
          "internalType": "uint256",
          "name": "tokenId",
          "type": "uint256"
        }
      ],
      "name": "tokenURI",
      "outputs": [
        {
          "internalType": "string",
          "name": "",
          "type": "string"
        }
      ],
      "stateMutability": "view",
      "type": "function"
    },
    {
      "inputs": [
        {
          "internalType": "address",
          "name": "from",
          "type": "address"
        },
        {
          "internalType": "address",
          "name": "to",
          "type": "address"
        },
        {
          "internalType": "uint256",
          "name": "tokenId",
          "type": "uint256"
        }
      ],
      "name": "transferFrom",
      "outputs": [],
      "stateMutability": "nonpayable",
      "type": "function"
    },
    {
      "inputs": [
        {
          "internalType": "address",
          "name": "newOwner",
          "type": "address"
        }
      ],
      "name": "transferOwnership",
      "outputs": [],
      "stateMutability": "nonpayable",
      "type": "function"
    },
    {
      "inputs": [
        {
          "internalType": "uint8",
          "name": "damage",
          "type": "uint8"
        },
        {
          "internalType": "uint8",
          "name": "magic",
          "type": "uint8"
        },
        {
          "internalType": "uint8",
          "name": "endurance",
          "type": "uint8"
        }
      ],
      "name": "mint",
      "outputs": [],
      "stateMutability": "nonpayable",
      "type": "function"
    },
    {
      "inputs": [
        {
          "internalType": "uint256",
          "name": "tokenId",
          "type": "uint256"
        }
      ],
      "name": "feed",
      "outputs": [],
      "stateMutability": "nonpayable",
      "type": "function"
    }
  ],
  "bytecode": "0x608060405260006007553480156200001657600080fd5b50604051620032123803806200321283398181016040528101906200003c9190620003b5565b818181600090805190602001906200005692919062000168565b5080600190805190602001906200006f92919062000168565b50505062000092620000866200009a60201b60201c565b620000a260201b60201c565b50506200049f565b600033905090565b6000600660009054906101000a900473ffffffffffffffffffffffffffffffffffffffff16905081600660006101000a81548173ffffffffffffffffffffffffffffffffffffffff021916908373ffffffffffffffffffffffffffffffffffffffff1602179055508173ffffffffffffffffffffffffffffffffffffffff168173ffffffffffffffffffffffffffffffffffffffff167f8be0079c531659141344cd1fd0a4f28419497f9722a3daafe3b4186f6b6457e060405160405180910390a35050565b828054620001769062000469565b90600052602060002090601f0160209004810192826200019a5760008555620001e6565b82601f10620001b557805160ff1916838001178555620001e6565b82800160010185558215620001e6579182015b82811115620001e5578251825591602001919060010190620001c8565b5b509050620001f59190620001f9565b5090565b5b8082111562000214576000816000905550600101620001fa565b5090565b6000604051905090565b600080fd5b600080fd5b600080fd5b600080fd5b6000601f19601f8301169050919050565b7f4e487b7100000000000000000000000000000000000000000000000000000000600052604160045260246000fd5b620002818262000236565b810181811067ffffffffffffffff82111715620002a357620002a262000247565b5b80604052505050565b6000620002b862000218565b9050620002c6828262000276565b919050565b600067ffffffffffffffff821115620002e957620002e862000247565b5b620002f48262000236565b9050602081019050919050565b60005b838110156200032157808201518184015260208101905062000304565b8381111562000331576000848401525b50505050565b60006200034e6200034884620002cb565b620002ac565b9050828152602081018484840111156200036d576200036c62000231565b5b6200037a84828562000301565b509392505050565b600082601f8301126200039a57620003996200022c565b5b8151620003ac84826020860162000337565b91505092915050565b60008060408385031215620003cf57620003ce62000222565b5b600083015167ffffffffffffffff811115620003f057620003ef62000227565b5b620003fe8582860162000382565b925050602083015167ffffffffffffffff81111562000422576200042162000227565b5b620004308582860162000382565b9150509250929050565b7f4e487b7100000000000000000000000000000000000000000000000000000000600052602260045260246000fd5b600060028204905060018216806200048257607f821691505b602082108114156200049957620004986200043a565b5b50919050565b612d6380620004af6000396000f3fe608060405234801561001057600080fd5b50600436106101165760003560e01c80638da5cb5b116100a2578063c87b56dd11610071578063c87b56dd146102cb578063e6f12af9146102fb578063e985e9c514610317578063f2fde38b14610347578063f59dfdfb1461036357610116565b80638da5cb5b1461025757806395d89b4114610275578063a22cb46514610293578063b88d4fde146102af57610116565b806323b872dd116100e957806323b872dd146101b557806342842e0e146101d15780636352211e146101ed57806370a082311461021d578063715018a61461024d57610116565b806301ffc9a71461011b57806306fdde031461014b578063081812fc14610169578063095ea7b314610199575b600080fd5b61013560048036038101906101309190611b5c565b61037f565b6040516101429190611ba4565b60405180910390f35b610153610461565b6040516101609190611c58565b60405180910390f35b610183600480360381019061017e9190611cb0565b6104f3565b6040516101909190611d1e565b60405180910390f35b6101b360048036038101906101ae9190611d65565b610578565b005b6101cf60048036038101906101ca9190611da5565b610690565b005b6101eb60048036038101906101e69190611da5565b6106f0565b005b61020760048036038101906102029190611cb0565b610710565b6040516102149190611d1e565b60405180910390f35b61023760048036038101906102329190611df8565b6107c2565b6040516102449190611e34565b60405180910390f35b61025561087a565b005b61025f610902565b60405161026c9190611d1e565b60405180910390f35b61027d61092c565b60405161028a9190611c58565b60405180910390f35b6102ad60048036038101906102a89190611e7b565b6109be565b005b6102c960048036038101906102c49190611ff0565b610b3f565b005b6102e560048036038101906102e09190611cb0565b610ba1565b6040516102f29190611c58565b60405180910390f35b610315600480360381019061031091906120ac565b610c48565b005b610331600480360381019061032c91906120ff565b610d85565b60405161033e9190611ba4565b60405180910390f35b610361600480360381019061035c9190611df8565b610e19565b005b61037d60048036038101906103789190611cb0565b610f11565b005b60007f80ac58cd000000000000000000000000000000000000000000000000000000007bffffffffffffffffffffffffffffffffffffffffffffffffffffffff1916827bffffffffffffffffffffffffffffffffffffffffffffffffffffffff1916148061044a57507f5b5e139f000000000000000000000000000000000000000000000000000000007bffffffffffffffffffffffffffffffffffffffffffffffffffffffff1916827bffffffffffffffffffffffffffffffffffffffffffffffffffffffff1916145b8061045a575061045982610f56565b5b9050919050565b6060600080546104709061216e565b80601f016020809104026020016040519081016040528092919081815260200182805461049c9061216e565b80156104e95780601f106104be576101008083540402835291602001916104e9565b820191906000526020600020905b8154815290600101906020018083116104cc57829003601f168201915b5050505050905090565b60006104fe82610fc0565b61053d576040517f08c379a000000000000000000000000000000000000000000000000000000000815260040161053490612212565b60405180910390fd5b6004600083815260200190815260200160002060009054906101000a900473ffffffffffffffffffffffffffffffffffffffff169050919050565b600061058382610710565b90508073ffffffffffffffffffffffffffffffffffffffff168373ffffffffffffffffffffffffffffffffffffffff1614156105f4576040517f08c379a00000000000000000000000000000000000000000000000000000000081526004016105eb906122a4565b60405180910390fd5b8073ffffffffffffffffffffffffffffffffffffffff1661061361102c565b73ffffffffffffffffffffffffffffffffffffffff16148061064257506106418161063c61102c565b610d85565b5b610681576040517f08c379a000000000000000000000000000000000000000000000000000000000815260040161067890612336565b60405180910390fd5b61068b8383611034565b505050565b6106a161069b61102c565b826110ed565b6106e0576040517f08c379a00000000000000000000000000000000000000000000000000000000081526004016106d7906123c8565b60405180910390fd5b6106eb8383836111cb565b505050565b61070b83838360405180602001604052806000815250610b3f565b505050565b6000806002600084815260200190815260200160002060009054906101000a900473ffffffffffffffffffffffffffffffffffffffff169050600073ffffffffffffffffffffffffffffffffffffffff168173ffffffffffffffffffffffffffffffffffffffff1614156107b9576040517f08c379a00000000000000000000000000000000000000000000000000000000081526004016107b09061245a565b60405180910390fd5b80915050919050565b60008073ffffffffffffffffffffffffffffffffffffffff168273ffffffffffffffffffffffffffffffffffffffff161415610833576040517f08c379a000000000000000000000000000000000000000000000000000000000815260040161082a906124ec565b60405180910390fd5b600360008373ffffffffffffffffffffffffffffffffffffffff1673ffffffffffffffffffffffffffffffffffffffff168152602001908152602001600020549050919050565b61088261102c565b73ffffffffffffffffffffffffffffffffffffffff166108a0610902565b73ffffffffffffffffffffffffffffffffffffffff16146108f6576040517f08c379a00000000000000000000000000000000000000000000000000000000081526004016108ed90612558565b60405180910390fd5b6109006000611427565b565b6000600660009054906101000a900473ffffffffffffffffffffffffffffffffffffffff16905090565b60606001805461093b9061216e565b80601f01602080910402602001604051908101604052809291908181526020018280546109679061216e565b80156109b45780601f10610989576101008083540402835291602001916109b4565b820191906000526020600020905b81548152906001019060200180831161099757829003601f168201915b5050505050905090565b6109c661102c565b73ffffffffffffffffffffffffffffffffffffffff168273ffffffffffffffffffffffffffffffffffffffff161415610a34576040517f08c379a0000000000000000000000000000000000000000000000000000000008152600401610a2b906125c4565b60405180910390fd5b8060056000610a4161102c565b73ffffffffffffffffffffffffffffffffffffffff1673ffffffffffffffffffffffffffffffffffffffff16815260200190815260200160002060008473ffffffffffffffffffffffffffffffffffffffff1673ffffffffffffffffffffffffffffffffffffffff16815260200190815260200160002060006101000a81548160ff0219169083151502179055508173ffffffffffffffffffffffffffffffffffffffff16610aee61102c565b73ffffffffffffffffffffffffffffffffffffffff167f17307eab39ab6107e8899845ad3d59bd9653f200f220920489ca2b5937696c3183604051610b339190611ba4565b60405180910390a35050565b610b50610b4a61102c565b836110ed565b610b8f576040517f08c379a0000000000000000000000000000000000000000000000000000000008152600401610b86906123c8565b60405180910390fd5b610b9b848484846114ed565b50505050565b6060610bac82610fc0565b610beb576040517f08c379a0000000000000000000000000000000000000000000000000000000008152600401610be290612656565b60405180910390fd5b6000610bf5611549565b90506000815111610c155760405180602001604052806000815250610c40565b80610c1f84611560565b604051602001610c309291906126b2565b6040516020818303038152906040525b915050919050565b610c5061102c565b73ffffffffffffffffffffffffffffffffffffffff16610c6e610902565b73ffffffffffffffffffffffffffffffffffffffff1614610cc4576040517f08c379a0000000000000000000000000000000000000000000000000000000008152600401610cbb90612558565b60405180910390fd5b610cd0336007546116c1565b60405180608001604052808460ff1681526020018360ff1681526020014281526020018260ff1681525060086000600754815260200190815260200160002060008201518160000160006101000a81548160ff021916908360ff16021790555060208201518160000160016101000a81548160ff021916908360ff160217905550604082015181600101556060820151816002015590505060076000815480929190610d7b90612705565b9190505550505050565b6000600560008473ffffffffffffffffffffffffffffffffffffffff1673ffffffffffffffffffffffffffffffffffffffff16815260200190815260200160002060008373ffffffffffffffffffffffffffffffffffffffff1673ffffffffffffffffffffffffffffffffffffffff16815260200190815260200160002060009054906101000a900460ff16905092915050565b610e2161102c565b73ffffffffffffffffffffffffffffffffffffffff16610e3f610902565b73ffffffffffffffffffffffffffffffffffffffff1614610e95576040517f08c379a0000000000000000000000000000000000000000000000000000000008152600401610e8c90612558565b60405180910390fd5b600073ffffffffffffffffffffffffffffffffffffffff168173ffffffffffffffffffffffffffffffffffffffff161415610f05576040517f08c379a0000000000000000000000000000000000000000000000000000000008152600401610efc906127c0565b60405180910390fd5b610f0e81611427565b50565b600060086000600754815260200190815260200160002090504281600201548260010154610f3f91906127e0565b11610f4957600080fd5b4281600101819055505050565b60007f01ffc9a7000000000000000000000000000000000000000000000000000000007bffffffffffffffffffffffffffffffffffffffffffffffffffffffff1916827bffffffffffffffffffffffffffffffffffffffffffffffffffffffff1916149050919050565b60008073ffffffffffffffffffffffffffffffffffffffff166002600084815260200190815260200160002060009054906101000a900473ffffffffffffffffffffffffffffffffffffffff1673ffffffffffffffffffffffffffffffffffffffff1614159050919050565b600033905090565b816004600083815260200190815260200160002060006101000a81548173ffffffffffffffffffffffffffffffffffffffff021916908373ffffffffffffffffffffffffffffffffffffffff160217905550808273ffffffffffffffffffffffffffffffffffffffff166110a783610710565b73ffffffffffffffffffffffffffffffffffffffff167f8c5be1e5ebec7d5bd14f71427d1e84f3dd0314c0f7b2291e5b200ac8c7c3b92560405160405180910390a45050565b60006110f882610fc0565b611137576040517f08c379a000000000000000000000000000000000000000000000000000000000815260040161112e906128a8565b60405180910390fd5b600061114283610710565b90508073ffffffffffffffffffffffffffffffffffffffff168473ffffffffffffffffffffffffffffffffffffffff1614806111b157508373ffffffffffffffffffffffffffffffffffffffff16611199846104f3565b73ffffffffffffffffffffffffffffffffffffffff16145b806111c257506111c18185610d85565b5b91505092915050565b8273ffffffffffffffffffffffffffffffffffffffff166111eb82610710565b73ffffffffffffffffffffffffffffffffffffffff1614611241576040517f08c379a00000000000000000000000000000000000000000000000000000000081526004016112389061293a565b60405180910390fd5b600073ffffffffffffffffffffffffffffffffffffffff168273ffffffffffffffffffffffffffffffffffffffff1614156112b1576040517f08c379a00000000000000000000000000000000000000000000000000000000081526004016112a8906129cc565b60405180910390fd5b6112bc8383836116df565b6112c7600082611034565b6001600360008573ffffffffffffffffffffffffffffffffffffffff1673ffffffffffffffffffffffffffffffffffffffff168152602001908152602001600020600082825461131791906129ec565b925050819055506001600360008473ffffffffffffffffffffffffffffffffffffffff1673ffffffffffffffffffffffffffffffffffffffff168152602001908152602001600020600082825461136e91906127e0565b92505081905550816002600083815260200190815260200160002060006101000a81548173ffffffffffffffffffffffffffffffffffffffff021916908373ffffffffffffffffffffffffffffffffffffffff160217905550808273ffffffffffffffffffffffffffffffffffffffff168473ffffffffffffffffffffffffffffffffffffffff167fddf252ad1be2c89b69c2b068fc378daa952ba7f163c4a11628f55a4df523b3ef60405160405180910390a4505050565b6000600660009054906101000a900473ffffffffffffffffffffffffffffffffffffffff16905081600660006101000a81548173ffffffffffffffffffffffffffffffffffffffff021916908373ffffffffffffffffffffffffffffffffffffffff1602179055508173ffffffffffffffffffffffffffffffffffffffff168173ffffffffffffffffffffffffffffffffffffffff167f8be0079c531659141344cd1fd0a4f28419497f9722a3daafe3b4186f6b6457e060405160405180910390a35050565b6114f88484846111cb565b6115048484848461171d565b611543576040517f08c379a000000000000000000000000000000000000000000000000000000000815260040161153a90612a92565b60405180910390fd5b50505050565b606060405180602001604052806000815250905090565b606060008214156115a8576040518060400160405280600181526020017f300000000000000000000000000000000000000000000000000000000000000081525090506116bc565b600082905060005b600082146115da5780806115c390612705565b915050600a826115d39190612ae1565b91506115b0565b60008167ffffffffffffffff8111156115f6576115f5611ec5565b5b6040519080825280601f01601f1916602001820160405280156116285781602001600182028036833780820191505090505b5090505b600085146116b55760018261164191906129ec565b9150600a856116509190612b12565b603061165c91906127e0565b60f81b81838151811061167257611671612b43565b5b60200101907effffffffffffffffffffffffffffffffffffffffffffffffffffffffffffff1916908160001a905350600a856116ae9190612ae1565b945061162c565b8093505050505b919050565b6116db8282604051806020016040528060008152506118b4565b5050565b60006008600060075481526020019081526020016000209050428160020154826001015461170d91906127e0565b1161171757600080fd5b50505050565b600061173e8473ffffffffffffffffffffffffffffffffffffffff1661190f565b156118a7578373ffffffffffffffffffffffffffffffffffffffff1663150b7a0261176761102c565b8786866040518563ffffffff1660e01b81526004016117899493929190612bc7565b602060405180830381600087803b1580156117a357600080fd5b505af19250505080156117d457506040513d601f19601f820116820180604052508101906117d19190612c28565b60015b611857573d8060008114611804576040519150601f19603f3d011682016040523d82523d6000602084013e611809565b606091505b5060008151141561184f576040517f08c379a000000000000000000000000000000000000000000000000000000000815260040161184690612a92565b60405180910390fd5b805181602001fd5b63150b7a0260e01b7bffffffffffffffffffffffffffffffffffffffffffffffffffffffff1916817bffffffffffffffffffffffffffffffffffffffffffffffffffffffff1916149150506118ac565b600190505b949350505050565b6118be8383611922565b6118cb600084848461171d565b61190a576040517f08c379a000000000000000000000000000000000000000000000000000000000815260040161190190612a92565b60405180910390fd5b505050565b600080823b905060008111915050919050565b600073ffffffffffffffffffffffffffffffffffffffff168273ffffffffffffffffffffffffffffffffffffffff161415611992576040517f08c379a000000000000000000000000000000000000000000000000000000000815260040161198990612ca1565b60405180910390fd5b61199b81610fc0565b156119db576040517f08c379a00000000000000000000000000000000000000000000000000000000081526004016119d290612d0d565b60405180910390fd5b6119e7600083836116df565b6001600360008473ffffffffffffffffffffffffffffffffffffffff1673ffffffffffffffffffffffffffffffffffffffff1681526020019081526020016000206000828254611a3791906127e0565b92505081905550816002600083815260200190815260200160002060006101000a81548173ffffffffffffffffffffffffffffffffffffffff021916908373ffffffffffffffffffffffffffffffffffffffff160217905550808273ffffffffffffffffffffffffffffffffffffffff16600073ffffffffffffffffffffffffffffffffffffffff167fddf252ad1be2c89b69c2b068fc378daa952ba7f163c4a11628f55a4df523b3ef60405160405180910390a45050565b6000604051905090565b600080fd5b600080fd5b60007fffffffff0000000000000000000000000000000000000000000000000000000082169050919050565b611b3981611b04565b8114611b4457600080fd5b50565b600081359050611b5681611b30565b92915050565b600060208284031215611b7257611b71611afa565b5b6000611b8084828501611b47565b91505092915050565b60008115159050919050565b611b9e81611b89565b82525050565b6000602082019050611bb96000830184611b95565b92915050565b600081519050919050565b600082825260208201905092915050565b60005b83811015611bf9578082015181840152602081019050611bde565b83811115611c08576000848401525b50505050565b6000601f19601f8301169050919050565b6000611c2a82611bbf565b611c348185611bca565b9350611c44818560208601611bdb565b611c4d81611c0e565b840191505092915050565b60006020820190508181036000830152611c728184611c1f565b905092915050565b6000819050919050565b611c8d81611c7a565b8114611c9857600080fd5b50565b600081359050611caa81611c84565b92915050565b600060208284031215611cc657611cc5611afa565b5b6000611cd484828501611c9b565b91505092915050565b600073ffffffffffffffffffffffffffffffffffffffff82169050919050565b6000611d0882611cdd565b9050919050565b611d1881611cfd565b82525050565b6000602082019050611d336000830184611d0f565b92915050565b611d4281611cfd565b8114611d4d57600080fd5b50565b600081359050611d5f81611d39565b92915050565b60008060408385031215611d7c57611d7b611afa565b5b6000611d8a85828601611d50565b9250506020611d9b85828601611c9b565b9150509250929050565b600080600060608486031215611dbe57611dbd611afa565b5b6000611dcc86828701611d50565b9350506020611ddd86828701611d50565b9250506040611dee86828701611c9b565b9150509250925092565b600060208284031215611e0e57611e0d611afa565b5b6000611e1c84828501611d50565b91505092915050565b611e2e81611c7a565b82525050565b6000602082019050611e496000830184611e25565b92915050565b611e5881611b89565b8114611e6357600080fd5b50565b600081359050611e7581611e4f565b92915050565b60008060408385031215611e9257611e91611afa565b5b6000611ea085828601611d50565b9250506020611eb185828601611e66565b9150509250929050565b600080fd5b600080fd5b7f4e487b7100000000000000000000000000000000000000000000000000000000600052604160045260246000fd5b611efd82611c0e565b810181811067ffffffffffffffff82111715611f1c57611f1b611ec5565b5b80604052505050565b6000611f2f611af0565b9050611f3b8282611ef4565b919050565b600067ffffffffffffffff821115611f5b57611f5a611ec5565b5b611f6482611c0e565b9050602081019050919050565b82818337600083830152505050565b6000611f93611f8e84611f40565b611f25565b905082815260208101848484011115611faf57611fae611ec0565b5b611fba848285611f71565b509392505050565b600082601f830112611fd757611fd6611ebb565b5b8135611fe7848260208601611f80565b91505092915050565b6000806000806080858703121561200a57612009611afa565b5b600061201887828801611d50565b945050602061202987828801611d50565b935050604061203a87828801611c9b565b925050606085013567ffffffffffffffff81111561205b5761205a611aff565b5b61206787828801611fc2565b91505092959194509250565b600060ff82169050919050565b61208981612073565b811461209457600080fd5b50565b6000813590506120a681612080565b92915050565b6000806000606084860312156120c5576120c4611afa565b5b60006120d386828701612097565b93505060206120e486828701612097565b92505060406120f586828701612097565b9150509250925092565b6000806040838503121561211657612115611afa565b5b600061212485828601611d50565b925050602061213585828601611d50565b9150509250929050565b7f4e487b7100000000000000000000000000000000000000000000000000000000600052602260045260246000fd5b6000600282049050600182168061218657607f821691505b6020821081141561219a5761219961213f565b5b50919050565b7f4552433732313a20617070726f76656420717565727920666f72206e6f6e657860008201527f697374656e7420746f6b656e0000000000000000000000000000000000000000602082015250565b60006121fc602c83611bca565b9150612207826121a0565b604082019050919050565b6000602082019050818103600083015261222b816121ef565b9050919050565b7f4552433732313a20617070726f76616c20746f2063757272656e74206f776e6560008201527f7200000000000000000000000000000000000000000000000000000000000000602082015250565b600061228e602183611bca565b915061229982612232565b604082019050919050565b600060208201905081810360008301526122bd81612281565b9050919050565b7f4552433732313a20617070726f76652063616c6c6572206973206e6f74206f7760008201527f6e6572206e6f7220617070726f76656420666f7220616c6c0000000000000000602082015250565b6000612320603883611bca565b915061232b826122c4565b604082019050919050565b6000602082019050818103600083015261234f81612313565b9050919050565b7f4552433732313a207472616e736665722063616c6c6572206973206e6f74206f60008201527f776e6572206e6f7220617070726f766564000000000000000000000000000000602082015250565b60006123b2603183611bca565b91506123bd82612356565b604082019050919050565b600060208201905081810360008301526123e1816123a5565b9050919050565b7f4552433732313a206f776e657220717565727920666f72206e6f6e657869737460008201527f656e7420746f6b656e0000000000000000000000000000000000000000000000602082015250565b6000612444602983611bca565b915061244f826123e8565b604082019050919050565b6000602082019050818103600083015261247381612437565b9050919050565b7f4552433732313a2062616c616e636520717565727920666f7220746865207a6560008201527f726f206164647265737300000000000000000000000000000000000000000000602082015250565b60006124d6602a83611bca565b91506124e18261247a565b604082019050919050565b60006020820190508181036000830152612505816124c9565b9050919050565b7f4f776e61626c653a2063616c6c6572206973206e6f7420746865206f776e6572600082015250565b6000612542602083611bca565b915061254d8261250c565b602082019050919050565b6000602082019050818103600083015261257181612535565b9050919050565b7f4552433732313a20617070726f766520746f2063616c6c657200000000000000600082015250565b60006125ae601983611bca565b91506125b982612578565b602082019050919050565b600060208201905081810360008301526125dd816125a1565b9050919050565b7f4552433732314d657461646174613a2055524920717565727920666f72206e6f60008201527f6e6578697374656e7420746f6b656e0000000000000000000000000000000000602082015250565b6000612640602f83611bca565b915061264b826125e4565b604082019050919050565b6000602082019050818103600083015261266f81612633565b9050919050565b600081905092915050565b600061268c82611bbf565b6126968185612676565b93506126a6818560208601611bdb565b80840191505092915050565b60006126be8285612681565b91506126ca8284612681565b91508190509392505050565b7f4e487b7100000000000000000000000000000000000000000000000000000000600052601160045260246000fd5b600061271082611c7a565b91507fffffffffffffffffffffffffffffffffffffffffffffffffffffffffffffffff821415612743576127426126d6565b5b600182019050919050565b7f4f776e61626c653a206e6577206f776e657220697320746865207a65726f206160008201527f6464726573730000000000000000000000000000000000000000000000000000602082015250565b60006127aa602683611bca565b91506127b58261274e565b604082019050919050565b600060208201905081810360008301526127d98161279d565b9050919050565b60006127eb82611c7a565b91506127f683611c7a565b9250827fffffffffffffffffffffffffffffffffffffffffffffffffffffffffffffffff0382111561282b5761282a6126d6565b5b828201905092915050565b7f4552433732313a206f70657261746f7220717565727920666f72206e6f6e657860008201527f697374656e7420746f6b656e0000000000000000000000000000000000000000602082015250565b6000612892602c83611bca565b915061289d82612836565b604082019050919050565b600060208201905081810360008301526128c181612885565b9050919050565b7f4552433732313a207472616e73666572206f6620746f6b656e2074686174206960008201527f73206e6f74206f776e0000000000000000000000000000000000000000000000602082015250565b6000612924602983611bca565b915061292f826128c8565b604082019050919050565b6000602082019050818103600083015261295381612917565b9050919050565b7f4552433732313a207472616e7366657220746f20746865207a65726f2061646460008201527f7265737300000000000000000000000000000000000000000000000000000000602082015250565b60006129b6602483611bca565b91506129c18261295a565b604082019050919050565b600060208201905081810360008301526129e5816129a9565b9050919050565b60006129f782611c7a565b9150612a0283611c7a565b925082821015612a1557612a146126d6565b5b828203905092915050565b7f4552433732313a207472616e7366657220746f206e6f6e20455243373231526560008201527f63656976657220696d706c656d656e7465720000000000000000000000000000602082015250565b6000612a7c603283611bca565b9150612a8782612a20565b604082019050919050565b60006020820190508181036000830152612aab81612a6f565b9050919050565b7f4e487b7100000000000000000000000000000000000000000000000000000000600052601260045260246000fd5b6000612aec82611c7a565b9150612af783611c7a565b925082612b0757612b06612ab2565b5b828204905092915050565b6000612b1d82611c7a565b9150612b2883611c7a565b925082612b3857612b37612ab2565b5b828206905092915050565b7f4e487b7100000000000000000000000000000000000000000000000000000000600052603260045260246000fd5b600081519050919050565b600082825260208201905092915050565b6000612b9982612b72565b612ba38185612b7d565b9350612bb3818560208601611bdb565b612bbc81611c0e565b840191505092915050565b6000608082019050612bdc6000830187611d0f565b612be96020830186611d0f565b612bf66040830185611e25565b8181036060830152612c088184612b8e565b905095945050505050565b600081519050612c2281611b30565b92915050565b600060208284031215612c3e57612c3d611afa565b5b6000612c4c84828501612c13565b91505092915050565b7f4552433732313a206d696e7420746f20746865207a65726f2061646472657373600082015250565b6000612c8b602083611bca565b9150612c9682612c55565b602082019050919050565b60006020820190508181036000830152612cba81612c7e565b9050919050565b7f4552433732313a20746f6b656e20616c7265616479206d696e74656400000000600082015250565b6000612cf7601c83611bca565b9150612d0282612cc1565b602082019050919050565b60006020820190508181036000830152612d2681612cea565b905091905056fea2646970667358221220fa23cdec265286404f8e2a1e220a7e05858769595dfb0ac52f5765d17881084864736f6c63430008090033",
  "immutableReferences": {},
  "source": "pragma solidity 0.8.9;\n\nimport \"../node_modules/@openzeppelin/contracts/token/ERC721/ERC721.sol\";\nimport \"../node_modules/@openzeppelin/contracts/access/Ownable.sol\";\n\ncontract Token is ERC721, Ownable {\n\n    struct Pet {\n        uint8 damage; //0-255\n        uint8 magic;\n        uint256 lastMeal;\n        uint256 endurance;\n    }\n\n    uint256 nextId = 0;\n\n    mapping( uint256 => Pet) private _tokenDetails;\n\n    constructor(string memory name, string memory symbol) ERC721(name, symbol) {\n\n    }\n\n    function mint(uint8 damage, uint8 magic, uint8 endurance) public onlyOwner {\n        _safeMint(msg.sender, nextId);\n        _tokenDetails[nextId] = Pet(damage, magic, block.timestamp, endurance);\n        nextId++;\n    }\n\n    function feed(uint256 tokenId) public {\n        Pet storage pet = _tokenDetails[nextId];\n        require(pet.lastMeal + pet.endurance > block.timestamp);\n        pet.lastMeal = block.timestamp;\n    }\n\n    function _beforeTokenTransfer(address from, address to, uint256 tokenId) internal override {\n        Pet storage pet = _tokenDetails[nextId];\n        require(pet.lastMeal + pet.endurance > block.timestamp);\n    }\n\n}",
  "sourcePath": "/home/parad/Downloads/blockchain/zaw/contracts/Token.sol",
  "compiler": {
    "name": "solc",
    "version": "0.8.9+commit.e5eed63a.Emscripten.clang"
  },
  "schemaVersion": "3.4.1",
  "updatedAt": "2021-10-31T22:06:49.738Z",
  "devdoc": {
    "kind": "dev",
    "methods": {
      "approve(address,uint256)": {
        "details": "See {IERC721-approve}."
      },
      "balanceOf(address)": {
        "details": "See {IERC721-balanceOf}."
      },
      "getApproved(uint256)": {
        "details": "See {IERC721-getApproved}."
      },
      "isApprovedForAll(address,address)": {
        "details": "See {IERC721-isApprovedForAll}."
      },
      "name()": {
        "details": "See {IERC721Metadata-name}."
      },
      "owner()": {
        "details": "Returns the address of the current owner."
      },
      "ownerOf(uint256)": {
        "details": "See {IERC721-ownerOf}."
      },
      "renounceOwnership()": {
        "details": "Leaves the contract without owner. It will not be possible to call `onlyOwner` functions anymore. Can only be called by the current owner. NOTE: Renouncing ownership will leave the contract without an owner, thereby removing any functionality that is only available to the owner."
      },
      "safeTransferFrom(address,address,uint256)": {
        "details": "See {IERC721-safeTransferFrom}."
      },
      "safeTransferFrom(address,address,uint256,bytes)": {
        "details": "See {IERC721-safeTransferFrom}."
      },
      "setApprovalForAll(address,bool)": {
        "details": "See {IERC721-setApprovalForAll}."
      },
      "supportsInterface(bytes4)": {
        "details": "See {IERC165-supportsInterface}."
      },
      "symbol()": {
        "details": "See {IERC721Metadata-symbol}."
      },
      "tokenURI(uint256)": {
        "details": "See {IERC721Metadata-tokenURI}."
      },
      "transferFrom(address,address,uint256)": {
        "details": "See {IERC721-transferFrom}."
      },
      "transferOwnership(address)": {
        "details": "Transfers ownership of the contract to a new account (`newOwner`). Can only be called by the current owner."
      }
    },
    "version": 1
  },
  "userdoc": {
    "kind": "user",
    "methods": {},
    "version": 1
  }
}